:1018000012C02BC02AC029C028C027C026C025C0AE
:1018100024C023C022C021C020C01FC01EC01DC0C4
:101820001CC01BC01AC011241FBECFE5D4E0DEBF10
:10183000CDBF10E0A0E6B0E0E0ECFFE102C0059013
:101840000D92A236B107D9F711E0A2E6B0E001C0CF
:101850001D92AD36B107E1F738C0D2CF5D9BFECF08
:101860008CB908955F9BFECF8CB1992787FD909529
:1018700008955F9BFECF8CB1803209F008955D9B87
:10188000FECF24E12CB95D9BFECF30E13CB9089539
:10189000982F5F9BFECF8CB1803209F008955D9B3D
:1018A000FECF24E12CB95D9BFECF9CB95D9BFECFA2
:1018B00030E13CB90895282F90E004C05F9BFECF33
:1018C0008CB19F5F9217D0F30895CFE5D4E0DEBFCF
:1018D000CDBF8E98969A000010BC17E619B908E1A2
:1018E0000AB986E880BD5D9BFECF1CB8CC24DD2400
:1018F0007601BD9A10926A0120E08FEF99E5A2E689
:10190000B2E0C297A109B109B7FFFBCFC59A8FEF2B
:1019100099E5A2E6B2E0C297A109B109B7FFFBCFF2
:10192000C598822F8F5F282F833038F380936A0108
:101930005F9914C00894C11CD11CE11CF11CF0E893
:10194000CF16FDE8DF06FBE5EF06F0E0FF0680F3CB
:10195000E0916200F09163000995EACF5F9BFECFB2
:101960002CB1922F2033F1F19C3609F4B2C291339D
:1019700009F486C2903409F42AC2913409F40AC2E7
:10198000923409F4F3C1953409F4DCC1903509F4BB
:10199000CCC1913509F4BCC1923509F426C1953505
:1019A00009F40CC1963509F4F2C0943609F495C0D7
:1019B000943709F43FC0953721F1963709F0B8CF35
:1019C0005F9BFECF2CB1203209F0B2CF5D9BFECFE2
:1019D00034E13CB95D9BFECF1CB85D9BFECF40E17E
:1019E0004CB9A6CF5F9BFECF3CB1303209F0BCCFE3
:1019F0005D9BFECF44E14CB95D9BFECF50E15CB9ED
:101A0000B3CF5F9BFECFECB1E03209F091CF5D9B8D
:101A1000FECFF4E1FCB95D9BFECF0EE10CB95D9BFE
:101A2000FECF13E91CB95D9BFECF67E06CB95D9BEF
:101A3000FECFD5CF5F9BFECF3CB1309369015F9B5A
:101A4000FECF4CB1409368015F9BFECF5CB1553433
:101A500009F43DC090916C019E7F90936C01A09120
:101A60006600B0916700AA0FBB1FB0936700A093F8
:101A700066005F9BFECFBCB1B03209F059CF5D9BD1
:101A8000FECFC4E1CCB9C0E0D0E020916801309134
:101A9000690112161306C0F480916C0180FD1DC10E
:101AA000869580FD30C1E0916600F09167008491D9
:101AB0005D9BFECF8CB93196F0936700E093660092
:101AC0002196C217D30740F35D9BFECF88CF70915C
:101AD0006C01716070936C01CCCF5F9BFECF6CB1D9
:101AE000609369015F9BFECF7CB170936801909118
:101AF0006C019E7F5F9BFECFACB1A53409F4916071
:101B000090936C0140E050E02091680130916901B0
:101B10001216130658F4E8E6F0E05F9BFECF9CB186
:101B200091934F5F5F4F42175307B8F35F9BFECF10
:101B3000BCB1B03209F0FCCEC0916C01C0FF62C0F4
:101B4000C0E0D0E012161306D8F408E610E0F80161
:101B500061918F01809166009091670026D28091FB
:101B600066009091670001969093670080936600ED
:101B70002196E0916801F0916901CE17DF0738F3F3
:101B80005D9BFECF24E12CB95D9BFECF28CF90E07A
:101B90005F9BFECF8CB19F5F9430D0F35F9BFECFF5
:101BA0004CB1403209F0C4CE5D9BFECF54E15CB92C
:101BB0005D9BFECF1CB85D9BFECF11CF5F9BFECF20
:101BC0000CB1009366005F9BFECF1CB110936700C1
:101BD0005F9BFECF2CB1203209F0AACE5D9BFECFD9
:101BE00034E13CB95D9BFECFFACE5F9BFECFFCB1EA
:101BF000F03209F09DCE5D9BFECF84E18CB95D9BF8
:101C0000FECFEDCEF0916700F7FD63C010926B013F
:101C10006091660070916700660F771F7093670090
:101C2000609366001091680110FF06C02F5F3F4F60
:101C30003093690120936801F894E199FECF112750
:101C4000E0916600F0916700C8E6D0E080916801FD
:101C500090916901103091F40091570001700130AA
:101C6000D9F303E000935700E89500915700017005
:101C70000130D9F301E100935700E89509901990DC
:101C80000091570001700130D9F301E00093570033
:101C9000E8951395103298F01127009157000170C4
:101CA0000130D9F305E000935700E8950091570003
:101CB00001700130D9F301E100935700E8953296A5
:101CC000029709F0C7CF103011F00296E5CF11242A
:101CD00057CF01E000936B019BCF809166009091FC
:101CE00067005BD15D9BFECF8CB9809166009091BF
:101CF00067000196909367008093660020916801C9
:101D000030916901DDCEE0916600F0916700D3CE9D
:101D10005F9BFECFCCB1C03209F00ACE5D9BFECFF7
:101D2000E4E1ECB95D9BFECF5ACE5F9BFECFACB138
:101D3000A03209F0FDCD5D9BFECFB4E1BCB95D9B47
:101D4000FECF4DCE90E05F9BFECF8CB19F5F953074
:101D5000D0F35F9BFECF7CB1703209F0E9CD5D9B83
:101D6000FECF94E19CB95D9BFECF39CE90E05F9BA6
:101D7000FECF8CB19F5F9431D0F35F9BFECF5CB1FF
:101D8000503209F0D5CD5D9BFECF64E16CB95D9B0F
:101D9000FECF25CE5F9BFECF8CB18038F1F181382C
:101DA00059F1823809F45BC0883909F447C05F9B58
:101DB000FECF3CB1303209F0BBCD5D9BFECF44E19C
:101DC0004CB95D9BFECF1CB85D9BFECF08CE5F9BE0
:101DD000FECF3CB1363818F05F9BFECF8CB15F9BD5
:101DE000FECF4CB1403209F0A3CD5D9BFECF54E154
:101DF0005CB95D9BFECFF3CD5F9BFECFACB1A03253
:101E000009F096CD5D9BFECFB4E1BCB95D9BFECFE2
:101E1000C1E0CCB95D9BFECFE2CD5F9BFECF6CB144
:101E2000603209F085CD5D9BFECF74E17CB95D9B8E
:101E3000FECF92E09CB95D9BFECFD1CD5F9BFECFE4
:101E40000CB1003209F074CD5D9BFECF14E11CB9DA
:101E50005D9BFECF23E02CB95D9BFECFC0CD5F9B89
:101E6000FECFECB1E03209F063CD5D9BFECFF4E133
:101E7000FCB95D9BFECF82E18CB95D9BFECFAFCDFF
:101E80005F9BFECFACB1A03209F052CD5D9BFECF7F
:101E9000B4E1BCB95D9BFECFC1E4CCB95D9BFECF84
:101EA000E6E5ECB95D9BFECFF2E5FCB95D9BFECFAC
:101EB00080E28CB95D9BFECF09E40CB95D9BFECF3F
:101EC00013E51CB95D9BFECF20E52CB95D9BFECFD1
:101ED00086CD5F9BFECF6CB16F3609F029CD5F9B3D
:101EE000FECF7CB17C3609F023CD5F9BFECF9CB149
:101EF000913609F01DCD2CCD5F9BFECF8CB199277B
:101F000087FD9095282F5D9BFECF8CB95F9BFECF00
:101F10008CB1992787FD9095382F5D9BFECF8CB9AA
:101F200021362CF02755313634F0375507C0203391
:101F3000D4F32053F8CF30330CF030532295207F68
:101F4000230F822F992787FD90950895282F992791
:101F500087FD9095807F907095958795959587954D
:101F600095958795959587958A306CF0982F995A15
:101F7000822F8F708A306CF0895A5D9BFECF9CB99E
:101F80005D9BFECF08C0982F905D822F8F708A30A6
:101F90009CF7805DF2CF8CB90895E199FECF9FBB8D
:101FA0008EBBE09A99278DB30895E199FECF9FBB30
:101FB0008EBB6DBB0FB6F894E29AE19A0FBE0895FE
:021FC00080009F
:0400000300001800E1
:00000001FF
